{
  "contractName": "ThorNode",
  "abi": [
    {
      "constant": true,
      "inputs": [
        {
          "name": "_target",
          "type": "address"
        }
      ],
      "name": "isX",
      "outputs": [
        {
          "name": "",
          "type": "bool"
        }
      ],
      "payable": false,
      "stateMutability": "pure",
      "type": "function"
    }
  ],
  "bytecode": "0x608060405234801561001057600080fd5b5060d68061001f6000396000f3fe6080604052348015600f57600080fd5b50600436106045576000357c010000000000000000000000000000000000000000000000000000000090048063f9574c6914604a575b600080fd5b608960048036036020811015605e57600080fd5b81019080803573ffffffffffffffffffffffffffffffffffffffff16906020019092919050505060a3565b604051808215151515815260200191505060405180910390f35b600091905056fea165627a7a72305820b832eb64cd15c5b84c62ffc8273a8bf2156053afe9db8d154e13989e34b5573e0029",
  "source": "pragma solidity ^0.5.2;\n\nimport \"openzeppelin-solidity/contracts/token/ERC721/ERC721Full.sol\";\nimport \"openzeppelin-solidity/contracts/drafts/Counters.sol\";\nimport \"openzeppelin-solidity/contracts/ownership/Ownable.sol\";\nimport \"./utils/StringLength.sol\";\n\n// Notes:\n// * All domains must be lower case, this will be done by enforcing 0-9, a-z\n\ncontract ThorNode {\n    function isX(address _target) public pure returns(bool){}\n}\n\ncontract Registry is ERC721Full, Ownable {\n    // using Counters for Counters.Counter;\n    using StringLength for string;\n    using SafeMath for uint256;\n    \n    constructor() ERC721Full(\"VeChain Name Service\", \"VNS\") public {\n        _tokenCount.increment();                                // Start counters at 1\n        _auctionCount.increment();                              // Start counters at 1\n        _thorNodeContract = ThorNode(0xd4dac3a95c741773F093d59256A21ED6FCc768a7);    // Testnet Address\n    }\n\n    // Collected fees stored in the contract's balance\n    uint private _collectedFees;\n    uint private _costPerYear = 1 ether;\n    uint private _behaviourBond = 5 ether;\n    uint private _biddingTime = 3 minutes;\n    uint private _revealTime = 3 minutes;\n    uint private _regularLength = 7;\n    uint private _xnodeLength = 4;\n    ThorNode private _thorNodeContract;\n\n    struct Auction {\n        uint                    winningBid;\n        address                 winningBidder;\n        uint                    auctionEnd;\n        string                  domainName;\n        bool                    biddingEnded;\n        uint                    revealEnd;\n        mapping(address => bytes32) blindedBid;                 // Mapping from id to shielded bids - sending a new bid updates your bid\n    }\n\n    struct Domain {\n        string                  domainName;\n        uint                    domainBond;                     // Amount paid for the domain minus fees thus far\n        uint                    yearlyCost;\n        bool                    autoRenew;\n        uint                    domainExpires;\n    }\n\n    Counters.Counter private _tokenCount;\n    Counters.Counter private _auctionCount;\n\n    // Mapping from token to domain name\n    mapping(uint256 => Domain) private _tokenToDomain;\n\n    // Mapping from domain to address\n    mapping(string => address) private _domainToAddress;\n\n    // Mapping from subdomain to address\n    mapping(string => address) private _subDomainToAddress;\n\n    // Mapping from auction ID to auction struct\n    mapping(uint256 => Auction) private _auctions;\n\n    // Mapping from domain names to active auction status.\n    mapping(string => uint256) private _domainToAuction;\n\n    // Mapping from address to refunds\n    mapping(address => uint) private _refunds;\n\n    // Mapping from tokenIDs to purchase cost\n    mapping(uint256 => uint256) private _tokenToCost;\n\n    // Mapping from tokenIDs to purchase cost\n    mapping(address => uint256[]) private _userAuctions;\n\n\n    // Events\n    event domainRegistered (\n        address indexed _owner,\n        string  indexed _domain,\n        uint256 indexed _tokenID,\n        uint256 _bond\n    );\n\n    event auctionStarted (\n        uint256 indexed _auctionID,\n        string  indexed _domain,\n        uint256 _auctionEnd\n    );\n\n    event auctionEnded (\n        uint256 indexed _auctionID,\n        string  indexed _domain,\n        address indexed _winningBidder,\n        uint256 _winningBid\n    );\n\n    event biddingClosed (\n        uint256 indexed _auctionID,\n        string  indexed _domain\n    );\n\n    event domainAddressChanged (\n        uint256 indexed _tokenID,\n        string  indexed _domain,\n        address indexed _targetAddress\n    );\n\n\n    // View Functions\n    // function getFeesEarned() external view returns (uint256 contractBalance, uint256 feesEarned) {\n    //     return (address(this).balance, _collectedFees);\n    // }\n\n    // VIP-181 Functions\n    function tokensOfOwner(address owner) external view returns (uint256[] memory) {\n        return _tokensOfOwner(owner);\n    }\n\n    // Domain\n    function getDomain(uint256 _tokenID) external view returns (string memory domainName, uint domainBond, uint yearlyCost, bool autoRenew, uint domainExpires) {\n        Domain memory d = _tokenToDomain[_tokenID];\n\n        return (d.domainName, d.domainBond, d.yearlyCost, d.autoRenew, d.domainExpires);\n    }\n\n    function resolveDomain(string calldata _domainName) external view returns (address) {\n        return _domainToAddress[_domainName];\n    }\n\n    // Auction\n    function getAuction(uint256 _auctionID) external view \n        returns (uint winningBid, address winningBidder, uint auctionEnd, string memory domainName, bool biddingEnded, uint revealEnd) {\n        \n        Auction memory a = _auctions[_auctionID];\n\n        return (a.winningBid, a.winningBidder, a.auctionEnd, a.domainName, a.biddingEnded, a.revealEnd);\n    }\n\n    function getAuctionID(string calldata _domain) external view returns (uint256 auctionID) {\n        return _domainToAuction[_domain];\n    }\n\n    function getUserAuctions(address _user) external view returns (uint256[] memory auctions) {\n        return _userAuctions[_user];\n    }\n\n    function getUserRefunds(address _user) external view returns (uint256 refundsAvailable) {\n        return _refunds[_user];\n    }\n\n    // External Public Functions\n    // Domain Functions\n\n    function isX() public view returns(bool) {\n        return _thorNodeContract.isX(msg.sender);\n    }\n\n    function setDomain(uint256 _tokenID, address _targetAddress) public {\n        require (\n            msg.sender == ownerOf(_tokenID),\n            \"Only the owner of the domain can set its address\"\n        );\n\n        string memory _domainName = _tokenToDomain[_tokenID].domainName;\n        _domainToAddress[_domainName] = _targetAddress;\n        emit domainAddressChanged(_tokenID, _domainName, _targetAddress);\n    }\n\n    function addSubdomain(uint256 _tokenID, string calldata _subDomain, address _targetAddress) external {\n        _isApprovedOrOwner(msg.sender, _tokenID);\n\n        string memory _domain = _tokenToDomain[_tokenID].domainName;\n        _subDomainToAddress[string(abi.encodePacked(_subDomain, \".\", _domain))] = _targetAddress;\n    }\n\n    function removeSubdomain(uint256 _tokenID, string calldata _subDomain) external {\n        _isApprovedOrOwner(msg.sender, _tokenID);\n\n        string memory _domain = _tokenToDomain[_tokenID].domainName;\n        _subDomainToAddress[string(abi.encodePacked(_subDomain, \".\", _domain))] = address(0);\n    }\n    \n    function invalidateDomain(uint256 _tokenID) external {         \n        Domain memory d = _tokenToDomain[_tokenID];                                 // Lets users delete domains that are > 6 chars\n\n        if (_thorNodeContract.isX(ownerOf(_tokenID))) {\n            require(\n                d.domainName.strlen() < _xnodeLength,\n                \"Domain name is not too short\"\n            );\n        } else {\n            require(\n                d.domainName.strlen() < _regularLength,\n                \"Domain name is not too short\"\n            );\n        }\n\n        _collectedFees += _tokenToDomain[_tokenID].domainBond;\n        _burnDomain(_tokenID, d.domainName);                                        // Wipe domain data and delete the token\n    }\n\n    function popDomain(uint256 _tokenID) external {\n        Domain memory d = _tokenToDomain[_tokenID];\n\n        require(\n            now > d.domainExpires && d.autoRenew == false,\n            \"Can't pop domain before expiry\"\n        );\n\n        _refunds[ownerOf(_tokenID)] = _refunds[ownerOf(_tokenID)].add(d.domainBond);\n        _burnDomain(_tokenID, d.domainName);\n    }\n\n    function collectDues(uint256 _tokenID) external payable {\n        Domain storage d = _tokenToDomain[_tokenID];\n\n        require (\n            d.autoRenew == true,\n            \"Only auto-renewing domains can pay dues\"\n        );\n\n        uint256 _yearsBehind = now.sub(d.domainExpires) / 365 days + 1;             // Throws if d.domainExpires > now, rounds up years overdue\n        \n        // IF a domain can cover renewal costs\n        if (_yearsBehind * _costPerYear <= d.domainBond) {                          // If the domain is not behind, cost is 0, statement will always pass\n            d.domainBond -= _yearsBehind * _costPerYear;\n            d.domainExpires += _yearsBehind * 365 days;\n            return;\n        }\n\n        // IF a domain cannot cover renewal costs, it is de-registered without refund\n        _collectedFees += d.domainBond;\n        _burnDomain(_tokenID, d.domainName);\n    }\n\n    function withdrawEarly(uint256 _tokenID) external {\n        Domain memory d = _tokenToDomain[_tokenID];\n\n        require (\n            msg.sender == ownerOf(_tokenID),\n            \"Only the owner of a domain can deregister\"\n        );\n\n        _refunds[ownerOf(_tokenID)] = _refunds[ownerOf(_tokenID)].add(d.domainBond);\n        _burnDomain(_tokenID, d.domainName);\n    }\n\n    function extendDomain(uint256 _tokenID, uint256 _years) external payable {\n        Domain storage d = _tokenToDomain[_tokenID];\n        \n        require(\n            msg.value == _costPerYear * _years,\n            \"Payment must cover purchase\"\n        );\n\n        d.domainExpires.add(_years * 365);\n        _collectedFees += msg.value;\n    }\n\n    function enableAutoRewnew(uint256 _tokenID) external {\n        _tokenToDomain[_tokenID].autoRenew = true;\n    }\n\n    // Auction Functions\n    function startAuction(string calldata _domain) external payable returns (uint256 id) {\n        return _newAuction(_domain);\n    }\n\n    function bidOnAuction(uint256 _auctionID, bytes32 _blindedBid) external payable {       // !!! CHECK IF THIS IS RE-ENTERABLE !!!\n        Auction storage a = _auctions[_auctionID];\n        \n        require(\n            now < a.auctionEnd && !a.biddingEnded,\n            \"Cannot bid after auction has ended\"\n        );\n\n        require(\n            msg.value == _behaviourBond,                                        // Bond dissincentivises no-show bidding\n            \"Bidder must attach a good behaviour bond\"\n        );\n\n        _userAuctions[msg.sender].push(_auctionID);                             // Let the user find the a\n\n        if (a.blindedBid[msg.sender] == \"\") {                                   // If user doesn't already have a bid\n            a.blindedBid[msg.sender] = _blindedBid;\n            return;\n        } else {\n            a.blindedBid[msg.sender] = _blindedBid;\n            msg.sender.transfer(_behaviourBond);                                // Refund their 2nd behaviour bond !!! CHECK IF THIS IS RE-ENTERABLE !!!\n        }\n    }\n\n    function finalizeBidding(uint256 _auctionID) external {\n        Auction storage a = _auctions[_auctionID];\n        \n        require(\n            now > a.auctionEnd && !a.biddingEnded,\n            \"Cannot close an auction too early, or after it has already been closed\"\n        );\n\n        a.biddingEnded = true;\n        a.revealEnd = now + _revealTime;\n        emit biddingClosed(_auctionID, a.domainName);\n    }\n\n    function revealBid(uint256 _auctionID, bytes32 _secret) external payable returns (bool winning) {\n        Auction storage a = _auctions[_auctionID];\n        \n        require(\n            a.biddingEnded && now < a.revealEnd,\n            \"Cannot reveal before auction has ended, or after reveal period has ended\"\n        );\n\n        require(\n            a.blindedBid[msg.sender] == keccak256(abi.encodePacked(msg.value, _secret)),\n            \"Secret or attached value were incorrect\"\n        );\n\n        if (msg.value <= a.winningBid) {\n            delete(a.blindedBid[msg.sender]);\n            msg.sender.transfer(msg.value + _behaviourBond);\n            return false;\n        }\n\n        if (a.winningBidder != address(0)) {\n            _refunds[a.winningBidder] = _refunds[a.winningBidder].add(a.winningBid + _behaviourBond);\n        }\n\n        a.winningBidder = msg.sender;\n        a.winningBid = msg.value;\n        return true;\n    }\n\n    function finalizeAuction(uint256 _auctionID) external {\n        Auction storage a = _auctions[_auctionID];\n        \n        require(\n            now > a.revealEnd && a.revealEnd != 0,\n            \"Cannot finalize the auction too early\"\n        );\n\n        if (a.winningBidder != address(0)) {\n            _registerDomain(a.domainName, a.winningBidder, a.winningBid + _behaviourBond);   // Winning bidder, if they exist, receives the domain\n        }\n        emit auctionEnded(_auctionID, a.domainName, a.winningBidder, a.winningBid);\n        delete(_auctions[_auctionID]);                                      // Delete the auction struct\n    }\n\n    function claimRefund(address payable _claimant) external {\n        uint256 _amountToRefund = _refunds[_claimant];\n        _refunds[_claimant] = 0;                                            // Reset refundable amount before refunding\n        _claimant.transfer(_amountToRefund);\n    }\n\n    function claimFees(address payable _owner) external {\n        require(\n            _owner == owner(),\n            \"Can only transfer accrued fees to owner\"\n        );\n\n        uint256 _receivable = _collectedFees;\n        _collectedFees = 0;\n        _owner.transfer(_receivable);\n    }\n\n    // Private Functions\n    function _registerDomain(string memory _domainName, address _owner, uint256 _pricePaid) internal {\n        require(\n            verifyNewDomain(_domainName),\n            \"Domain is already registered\"\n        );          \n\n        uint256 _tokenID = _tokenCount.current();                           // tokenID is equal to its count\n        _mint(_owner, _tokenID);                                            // Call the mint function of ERC721Enumerable\n        _tokenCount.increment();                                            // Increment counter after minting\n\n        // Set VNS Specific Data\n        _collectedFees += _costPerYear;\n        _tokenToDomain[_tokenID] = Domain(_domainName, _pricePaid - _costPerYear, _costPerYear, false, now + 365 days);   // Auto renewals are off by default\n        _domainToAddress[_domainName] = _owner;                             // Intialize the address to point at the owner\n\n        delete(_domainToAuction[_domainName]);                              // Stop blocking new auctions for this domain (should the domain deregister)\n        emit domainRegistered(_owner, _domainName, _tokenID, _pricePaid - _costPerYear);\n    }\n\n    function _newAuction(string memory _domain) internal returns (uint256) {\n        require(\n            verifyNewDomain(_domain),\n            \"Can't register an already existing domain\"\n        );\n        require(\n            _domainToAuction[_domain] == 0,\n            \"There is already an active auction for this domain\"\n        );\n\n        uint _auctionID = _auctionCount.current();\n        uint _auctionEnd = now + _biddingTime;                              // Bidding lasts 3 days\n        _auctions[_auctionID] = Auction(0, address(0), _auctionEnd, _domain, false, 0);   // Creates new auction struct in the auctions mapping\n        _domainToAuction[_domain] = _auctionID;\n\n        _auctionCount.increment();\n        emit auctionStarted(_auctionID, _domain, _auctionEnd);\n        return _auctionID;\n    }\n\n    // Helper Functions\n    function verifyNewDomain(string memory _domainName) internal view returns (bool) {\n        return _domainToAddress[_domainName] == address(0);\n    }\n\n    function _burnDomain(uint256 _tokenID, string memory _domainName) internal {\n        delete _tokenToDomain[_tokenID];\n        delete _domainToAddress[_domainName];\n        _burn(ownerOf(_tokenID), _tokenID);\n    }\n\n}\n",
  "sourcePath": "/Users/kenneth/Projects/monti/vns/contracts/Registry.sol",
  "compiler": {
    "name": "solc",
    "version": "0.5.2+commit.1df8f40c.Emscripten.clang"
  },
  "schemaVersion": "3.0.3",
  "updatedAt": "2019-03-29T21:36:29.566Z",
  "devdoc": {
    "methods": {}
  },
  "userdoc": {
    "methods": {}
  }
}